:020000040000FA
:060000000A128A11F32F21
:10001000F50075080F39F2007208F3007508F03921
:10002000F2007208F4008312031308167408F20039
:1000300004300310F20CFF3E031D192872080A1643
:100040008A15A3230A128A110A168A1556230A1240
:100050008A1173080A168A15A3230A128A110A162E
:100060008A1556230A128A110800831603132708DB
:10007000F3002608F2002508F1002408F000003003
:10008000F7000030F6000030F5000030F4000A16EA
:100090008A11A4210A128A1103184F2850286128B6
:1000A0002130831603179800003099000030831622
:1000B0000313A7000030A6000030A5000030A40004
:1000C000AC2983160313270883120313A300831696
:1000D0000313260883120313A200831603132508B3
:1000E00083120313A100831603132408831203133E
:1000F000A0000030A7000030A6000030A5000030AE
:10010000A4000A168A1552250A128A11031C89288E
:100110008A289B2822308316031798000030990004
:10012000003083160313A7000030A6000030A5009E
:100130000030A400AC29BF3083120313D0008030FC
:10014000CF000030CE000030CD004030B60000308F
:10015000B5000030B4000030B3006E30ED006D0823
:10016000B00083160313270883120313AF0083160E
:100170000313260883120313AE0083160313250806
:1001800083120313AD008316031324088312031391
:10019000AC000A168A154E260A128A11831203131E
:1001A0002F08BA002E08B9002D08B8002C08B70097
:1001B0000A128A1192240A128A1183120313360832
:1001C000D4003508D3003408D2003308D1000A1215
:1001D0008A1578250A128A11831203135008831690
:1001E0000313A700831203134F0883160313A600FB
:1001F000831203134E0883160313A50083120313FF
:100200004D0883160313A400FF3083120313EE0777
:100210000318EF0AFF30EF07831603132708831232
:100220000313E40083160313260883120313E30069
:1002300083160313250883120313E20083160313A6
:10024000240883120313E1002930ED006D08E50056
:100250000830E6000030E7000A168A1165240A1209
:100260008A1183120313640883160313A7008312F1
:100270000313630883160313A60083120313620893
:1002800083160313A5008312031361088316031357
:10029000A400270883120313D00083160313260833
:1002A00083120313CF00831603132508831203134D
:1002B000CE0083160313240883120313CD003F30AE
:1002C000B6003130B5007230B4001830B3006E089B
:1002D000F0006F08F1000030F11BFF30F200F30076
:1002E00001300A168A11EC220A128A11730883124D
:1002F0000313BA007208B9007108B8007008B7009B
:100300000A128A1192240A128A11831203133608E0
:10031000D4003508D3003408D2003308D1000A12C3
:100320008A1578250A128A1183120313500883163E
:100330000313A700831203134F0883160313A600A9
:10034000831203134E0883160313A50083120313AD
:100350004D0883160313A4000800413083120313D1
:100360009F008230831603139F00831203138901B9
:1003700087018601850183160313860188010A1609
:100380008A1510270A128A11053083160313E50017
:100390000F30E400F030E300E30BCC29E40BCC2970
:1003A000E50BCC290000003083120313A3000030BA
:1003B000A2000030A1006430A0000A168A15D824DB
:1003C0000A128A110A168A1146220A128A111F304D
:1003D00083160313E5007130E4001D30E300E30BE6
:1003E000EF29E40BEF29E50BEF29F62911308316ED
:1003F0000313E5003C30E400CA30E300E30BFE29C0
:10040000E40BFE29E50BFE2900000A168A15882355
:100410000A128A110A168A15E7230A128A1183160C
:1004200003172D03031D152A162AF22A0A168A1508
:1004300010250A128A1183160313E300630883163A
:100440000317AA000A168A1510250A128A118316A4
:100450000313E300630883160317A9000A168A151D
:1004600010250A128A1183160313E300630883160A
:100470000317AC000A168A1510250A128A11831672
:100480000313E300630883160317AB000A168A15EB
:1004900010250A128A1183160313E30063088316DA
:1004A0000317A6002A08290783160313E300E401B3
:1004B000E40D831603172C08831603136307E50066
:1004C0000030031801306407E600831603172B0879
:1004D000831603136507E700003003180130660731
:1004E000E800FF306705E90000306805EA00831680
:1004F0000317260883160313EB00EC016A086C0649
:10050000031D842A69086B06031D872A882AF22A9C
:10051000831603172C0883160313E300630883165E
:100520000317A8002A0883160313E3006308831641
:100530000317A700F501F50A02300A168A15A2254D
:100540000A128A1157300A168A15C5230A128A110F
:1005500083160317280883160313E300E401E5015B
:10056000E6016608CF006508CE006408CD00630888
:10057000CC000A128A1530200A128A115C300A1641
:100580008A15C5230A128A11073083160313E30064
:100590006308F50002300A168A15A2250A128A118C
:1005A00054300A168A15C5230A128A1183160317B6
:1005B000270883160313E300E401E501E60166085A
:1005C000CF006508CE006408CD006308CC000A1295
:1005D0008A1530200A128A115A300A168A15C52344
:1005E0000A128A110A168A1171200A128A118316B8
:1005F00003130514831203131F14273083160313E8
:10060000E300E30B012B831203131F151F19092BA2
:100610000A2B062B1E0883160313E300E40163086C
:10062000E400E3011E0863078316031794000030FB
:10063000031801308316031364078316031795000C
:100640009601951B960316089700423093009A3046
:10065000920000309100003090002508803AFF00A1
:1006600080307F02031D362B14302402031C392BEB
:100670003A2B4B2B8316031722082304031D412B0F
:10068000422B4B2B42309300C2309200003091003D
:1006900000309000642B831603172308803AFF0074
:1006A00080307F02031D562B01302202031C592B80
:1006B0005A2B642B413083160317930000309200AD
:1006C00000309100003090008312031306140530AF
:1006D00083160313E5000F30E400F030E300E30B72
:1006E0006F2BE40B6F2BE50B6F2B000083120313B2
:1006F0000610053083160313E5000F30E400F030D8
:10070000E300E30B812BE40B812BE50B812B000035
:10071000F501F50A01300A168A15A2250A128A1176
:1007200083160317200883160313CC0083160317C0
:10073000210883160313CD000030CD1BFF30CE00FF
:10074000CF000A128A1530200A128A1155300A1673
:100750008A15C5230A128A118316031722088316E5
:100760000313CC0083160317230883160313CD004D
:100770000030CD1BFF30CE00CF000A128A1530208A
:100780000A128A1155300A168A15C5230A128A11CF
:1007900083160317240883160313CC00831603174C
:1007A000250883160313CD000030CD1BFF30CE008B
:1007B000CF000A128A1530200A128A114D300A160B
:1007C0008A15C5230A128A11831603171308831288
:1007D0000313A30083160317120883120313A20046
:1007E00083160317110883120313A100831603173E
:1007F000100883120313A0000A168A1584270A1210
:100800008A1183120313230883160317B10083127E
:100810000313220883160317B00083120313210861
:1008200083160317AF0083120313200883160317E0
:10083000AE00310883160313CF0083160317300868
:1008400083160313CE00831603172F088316031392
:10085000CD00831603172E0883160313CC000A124B
:100860008A1530200A128A1151300A168A15C523BA
:100870000A128A11831603171308F3001208F200F4
:100880001108F1001008F0004230F7000C30F600BB
:100890000030F5000030F4000A168A11A4210A1273
:1008A0008A110318542C552C592C83120313061546
:1008B0005C2C831203130611831603172108803A58
:1008C000FF0080307F02031D672C083020020318D0
:1008D0006A2C6B2C6F2C831203138614722C8312D8
:1008E0000313861016308316031728020318792C79
:1008F0007A2C7F2C8312031386158612F6291D305D
:100900002802031C842C852C8A2C83120313861640
:100910008611F6298312031386128611F6290A120C
:100920008A1100288312031336088039BB003B0864
:10093000C0003608BB003B07BC003C08C600B51F22
:10094000A22CA32CA42C461446080319A82CA92CCD
:10095000B82C460A031DAD2CAE2CB62C0030B600C8
:100960000030B5000030B4000030B300B517C02C23
:100970000030B6000030B5000030B4000030B300E5
:100980003A088039BB003B08C0063A08BB003B0769
:10099000BC003C08C100B91FCE2CCF2CD02C411478
:1009A00041080319D42CD52CE42C410A031DD92C61
:1009B000DA2CE22C0030BA000030B9000030B80068
:1009C0000030B700B917EC2C0030BA000030B90085
:1009D0000030B8000030B70041080319F02CF12CAA
:1009E000F62C4608031DF52CF62CFF2C0030B60023
:1009F0000030B5000030B4000030B300F22F3308EF
:100A0000BB003B08F00039080A168A1552240A1266
:100A10008A11710883120313CC007008CB004B08B5
:100A2000BB00BC01BD01BE013E08C5003D08C400BD
:100A30003C08C3003B08C2004C08BB00BC01BD0120
:100A4000BE013E08CA003D08C9003C08C8003B087A
:100A5000C7003408BB003B08F00038080A168A15A6
:100A600052240A128A11710883120313CC007008F1
:100A7000CB004B08BB00BC01BD01BE013B08C20757
:100A80003C0803110318013E0319472DC3073D0815
:100A900003110318013E03194E2DC4073E0803112C
:100AA0000318013E0319552DC5074C08BB00BC01B6
:100AB000BD01BE013B08C7073C0803110318013EF6
:100AC0000319632DC8073D0803110318013E0319DC
:100AD0006A2DC9073E0803110318013E0319712D41
:100AE000CA073508BB003B08F00037080A168A150C
:100AF00052240A128A11710883120313CC00700861
:100B0000CB004B08BB00BC01BD01BE013B08C207C6
:100B10003C0803110318013E03198F2DC3073D083C
:100B200003110318013E0319962DC4073E08031153
:100B30000318013E03199D2DC5074C08BB00BC01DD
:100B4000BD01BE013B08C7073C0803110318013E65
:100B50000319AB2DC8073D0803110318013E031903
:100B6000B22DC9073E0803110318013E0319B92D20
:100B7000CA070830BB000310C20DC30DC40DC50D5C
:100B8000BB0BBB2D3408BB003B08F00037080A162E
:100B90008A1552240A128A11710883120313CC0099
:100BA0007008CB004B08BB004C08BC00BD01BE0167
:100BB0003B08C2073C0803110318013E0319E12D4D
:100BC000C3073D0803110318013E0319E82DC407AC
:100BD0003E0803110318013E0319EF2DC507330822
:100BE000BB003B08F00038080A168A1552240A1286
:100BF0008A11710883120313CC007008CB004B08D4
:100C0000BB004C08BC00BD01BE013B08C2073C084C
:100C100003110318013E03190E2EC3073D080311EB
:100C20000318013E0319152EC4073E0803110318CB
:100C3000013E03191C2EC5070830BB000310C20D6E
:100C4000C30DC40DC50DBB0B1E2E3308BB003B08E6
:100C5000F00037080A168A1552240A128A11710800
:100C600083120313CC007008CB004B08BB004C0868
:100C7000BC00BD01BE013B08C2073C0803110318BC
:100C8000013E0319442EC3073D0803110318013E1A
:100C900003194B2EC4073E0803110318013E031924
:100CA000522EC5073408BB003B08F00039080A166D
:100CB0008A1552240A128A11710883120313CC0078
:100CC0007008CB004B08BB004C08BC00BD01BE0146
:100CD0003B08C7073C0803110318013E0319712E96
:100CE000C8073D0803110318013E0319782EC907F0
:100CF0003E0803110318013E03197F2ECA07350869
:100D0000BB003B08F00038080A168A1552240A1264
:100D10008A11710883120313CC007008CB004B08B2
:100D2000BB004C08BC00BD01BE013B08C7073C0826
:100D300003110318013E03199E2EC8073D08031135
:100D40000318013E0319A52EC9073E080311031815
:100D5000013E0319AC2ECA073508BB003B08F00062
:100D600039080A168A1552240A128A117108831248
:100D70000313CC007008CB004B08BB004C08BC0030
:100D8000BD01BE0108300310BB0DBC0DBD0DBE0D75
:100D9000FF3E031DC32E3B08C7073C080311031881
:100DA000013E0319D42EC8073D0803110318013E64
:100DB0000319DB2EC9073E0803110318013E03196E
:100DC000E22ECA074208BB004308BC004408BD002D
:100DD0004508BE0018300310BE0CBD0CBC0CBB0C8B
:100DE000FF3E031DEB2E3B08C7073C080311031809
:100DF000013E0319FC2EC8073D0803110318013EEC
:100E00000319032FC9073E0803110318013E0319F4
:100E10000A2FCA070830BB000310C20DC30DC40D52
:100E2000C50DBB0B0C2F46084107BB00BC01BC0D18
:100E30003B08823ECB003C080318013EFF3ECC003D
:100E40003E2F0130BB000310C70DC80DC90DCA0DE0
:100E5000BB0B232FC51F2D2F2E2F2F2F47140130F3
:100E6000BB000310C20DC30DC40DC50DBB0B312F4C
:100E7000FF30CB070318CC0AFF30CC07C91F412F26
:100E8000422F212FC101C51F462F472F632FFF304F
:100E90004205BB00FF304305BC00FF304405BD00E8
:100EA0007F304505BE003E083D043C043B04031969
:100EB0005A2F5B2F5E2FC101C10A632F471C612F80
:100EC000622F632F5B2F41080319672F682F992F1B
:100ED0000130C707003003180130C807003003187D
:100EE0000130C907003003180130CA074A1C792FA6
:100EF0007A2F992F4708BB004808BC004908BD005D
:100F00004A08BE000130BF003E0DBE0CBD0CBC0C3B
:100F1000BB0CBF0B842F3E08CA003D08C9003C082B
:100F2000C8003B08C7000130CB070318CC0A0030CB
:100F3000CC074C08803AFF0080307F02031DA22FAF
:100F4000FF304B02031CA52FA62FB12F7F30831239
:100F50000313CA008030C9000030C8000030C70049
:100F6000E62F831203134C08803AFF0080307F0283
:100F7000031DBC2F01304B020318BF2FC02FCC2FF5
:100F8000003083120313CA000030C9000030C800CB
:100F90000030C700C001E62F831203134B08BB00CB
:100FA0003B08C600FF30C705FF30C8057F30C905C4
:100FB0000030CA05461CDD2FDE2FDF2FC91746087B
:100FC000BB0003103B0CBC003C08CA004008BB003F
:100FD0003B08CA044A08B6004908B5004808B400EE
:100FE0004708B3000800831790308400AE300A161B
:100FF0008A1515230A128A1183010A128A11AD2952
:10100A000A168A153A230A128A15831603139115AA
:10101A000A168A153A230A128A1583120313130829
:10102A00F200F3017208F4007308F5000A168A1533
:10103A003A230A128A1570182328272883160313BD
:10104A0091162A2883160313911211167508F100B6
:10105A007408F000080083160313E101E2014C084A
:10106A00D0005008E0004F084E044D044C04031D04
:10107A003F284028762883120313081603300A16DD
:10108A008A15A3230A128A150A168A1556230A12E2
:10109A008A1500300A168A15A3230A128A150A1617
:1010AA008A1556230A128A1576280130E107031891
:1010BA00E20A0030E2070A30F0000030F10060086E
:1010CA00D000D1015008F2005108F3000A168A1123
:1010DA000A200A128A15700883160313D2005208CE
:1010EA00E000831603136008031D7C287D285A2814
:1010FA00FF3083160313E1070318E20AFF30E20701
:10110A00E21F882889288A2837296108F00062089E
:10111A00F1000030F11BFF30F200F30001300A1633
:10112A008A11EC220A128A15730883160313D8004F
:10113A007208D7007108D6007008D5005808BD009B
:10114A005708BC005608BB005508BA004130B90020
:10115A002030B8000030B7000030B6000A168A11F5
:10116A0025260A128A15831603133908DC00380863
:10117A00DB003708DA003608D9005C08831203134B
:10118A00A300831603135B0883120313A2008316BA
:10119A0003135A0883120313A10083160313590871
:1011AA0083120313A0000A168A1584270A128A15C5
:1011BA0083120313200883160313D0005008DE009D
:1011CA005E08D000D101D201D3015308F3005208BE
:1011DA00F2005108F1005008F0004F08F7004E08DD
:1011EA00F6004D08F5004C08F4000A168A1107218A
:1011FA000A128A15700883160313D4005408DD00F6
:10120A000A30F0000030F1005D08D000D10150082A
:10121A00F2005108F3000A168A15F5250A128A15F2
:10122A00700883160313D2005208DF0083120313D7
:10123A00081603300A168A15A3230A128A150A16F3
:10124A008A1556230A128A15831603135F080A168B
:10125A008A15A3230A128A150A168A1556230A1210
:10126A008A157D28080077088039F80078088312E3
:10127A000313A4007708F8007807F9007908AB008F
:10128A00F61F482949294A292B142B0803194E29E4
:10129A004F295F292B0A031D532954295C29003041
:1012AA00F7000030F6000030F5000030F400F617C1
:1012BA00F70167290030F7000030F6000030F5002A
:1012CA000030F40073088039F8007808A40673081F
:1012DA00F8007807F9007908AC00F21F7529762919
:1012EA0077292C142C0803197B297C298C292C0A90
:1012FA00031D8029812989290030F3000030F2007A
:10130A000030F1000030F000F217F30194290030A8
:10131A00F3000030F2000030F1000030F0007308F2
:10132A00720471047004031D9B299C29B52900309D
:10133A00F7000030F6000030F5000030F40080308D
:10134A00F6047F30F7042408F8007808F7047708D1
:10135A00F3007608F2007508F1007408F0001A2B01
:10136A002B08031DB929BA29C3290030F30000301C
:10137A00F2000030F1000030F0001A2B2B08F800C0
:10138A00F9017908FB002C087802FA00031CFB0318
:10139A007A087F3EA5007B080318013E003EA6009E
:1013AA007708A3007608A2007508A1007408A000B7
:1013BA000030F7000030F6000030F5000030F4008D
:1013CA000030AA000030A9000030A8000030A700B1
:1013DA00AC013F2A2C080319F329F429142A0130F5
:1013EA00F8000310A00DA10DA20DA30DF80BF6290C
:1013FA000130F8000310F40DF50DF60DF70DF80B9A
:10140A00FF29AA1F092A0A2A0B2A74140130F80094
:10141A000310A70DA80DA90DAA0DF80B0D2A730824
:10142A002302031D222A72082202031D222A71089E
:10143A002102031D222A70082002031C252A262ABB
:10144A003B2A2A177008A0027108031C710F2E2A62
:10145A002F2AA1027208031C720F342A352AA2020B
:10146A007308031C730F3A2A3B2AA3020130F800BF
:10147A007808AC071A302C02031C442A452AEF29A3
:10148A00230822042104200403194C2A4D2A6C2A19
:10149A0027146C2A0130F8000310F40DF50DF60D2F
:1014AA00F70DF80B512AAA1F5B2A5C2A5D2A7414CD
:1014BA000130F8000310A70DA80DA90DAA0DF80B0D
:1014CA005F2AFF30A5070318A60AFF30A607F61FF2
:1014DA006F2A702A4F2AAC01AA1F742A752A912AE8
:1014EA00FF302705F800FF302805F900FF302905ED
:1014FA00FA007F302A05FB007B087A047904780415
:10150A000319882A892A8C2AAC01AC0A912A741CEC
:10151A008F2A902A912A892A2C080319952A962A11
:10152A00C72A0130F407003003180130F5070030EC
:10153A0003180130F607003003180130F707771C4B
:10154A00A72AA82AC72A7408F8007508F900760895
:10155A00FA007708FB000130FC007B0DFB0CFA0C4B
:10156A00F90CF80CFC0BB22A7B08F7007A08F60093
:10157A007908F5007808F4000130A5070318A60ACF
:10158A000030A6072608803AFF0080307F02031D3C
:10159A00D02AFF302502031CD32AD42AE22AFF309C
:1015AA0083120313A5000030A6000030F7000030B4
:1015BA00F6000030F5000030F40083120313260809
:1015CA00803AFF0080307F02031DED2A0130250298
:1015DA000318F02AF12AFE2A83120313A501A60191
:1015EA000030F7000030F6000030F5000030F4005B
:1015FA00A401831203132508F8007808AB002B1CFA
:10160A00072B082B0A2BF6170E2B7F30F8007808C9
:10161A00F6052B08F8000310780CF9007908F70092
:10162A002408F8007808F704AC2908008316031385
:10163A002D0883120313A300831603132C088312A5
:10164A000313A200831603132B0883120313A100AA
:10165A00831603132A0883120313A0000030A7007D
:10166A000030A6000030A5000030A4000A168A1532
:10167A0052250A128A15031C432B442B4F2B3F3049
:10168A0083160313AD008030AC000030AB0000308D
:10169A00AA00772D4430F3003130F2007230F100A5
:1016AA001830F000831603132D08F7002C08F600F3
:1016BA002B08F5002A08F4000A168A11A4210A1236
:1016CA008A150318692B6A2B7B2B22308316031782
:1016DA009800003099007F3083160313AD007F30E5
:1016EA00AC00FF30AB00FF30AA00772D831603133E
:1016FA002D08F3002C08F2002B08F1002A08F0004C
:10170A00C430F7003A30F6004830F5008730F4006C
:10171A000A168A11A4210A128A150318952B962BE8
:10172A00A72B223083160317980000309900003047
:10173A0083160313AD000030AC000030AB0000305C
:10174A00AA00772D831603132D08F3002C08F20044
:10175A002B08F1002A08F0000030F7000030F600EC
:10176A000030F5000030F4000A168A11A4210A128A
:10177A008A15031CC12BC32B0130C42B00308316DE
:10178A000313AE002E08B50035080319CD2BCE2B56
:10179A00E52B2D08F3002C08F2002B08F1002A088B
:1017AA00F0000A168A152F230A128A15730883165F
:1017BA000313AD007208AC007108AB007008AA00F0
:1017CA003F3083120313B600B830B500AA30B40014
:1017DA003B30B300831603132D0883120313BA0098
:1017EA00831603132C0883120313B90083160313F9
:1017FA002B0883120313B800831603132A088312D3
:10180A000313B7000A128A1192240A128A15831244
:10181A000313360883160313AD0083120313350826
:10182A0083160313AC0083120313340883160313BD
:10183A00AB0083120313330883160313AA002D087F
:10184A0083120313E400831603132C088312031371
:10185A00E300831603132B0883120313E200831693
:10186A0003132A0883120313E1000A168A11A62316
:10187A000A128A1583120313640883160313B2002B
:10188A0083120313630883160313B100831203132D
:10189A00620883160313B0008312031361088316C8
:1018AA000313AF00320883120313A3008316031332
:1018BA00310883120313A20083160313300883121C
:1018CA000313A100831603132F0883120313A00026
:1018DA000A168A1584270A128A1583120313210805
:1018EA0083160313B4008312031320088316031309
:1018FA00B3003308F0003408F1000030F11BFF3068
:10190A00F200F30001300A168A11EC220A128A1533
:10191A00730883120313E4007208E3007108E200FB
:10192A007008E100831603132D0883120313E800DD
:10193A00831603132C0883120313E7008316031379
:10194A002B0883120313E600831603132A08831253
:10195A000313E5000A168A1509240A128A15831246
:10196A000313640883160313AD0083120313630879
:10197A0083160313AC00831203136208831603133E
:10198A00AB0083120313610883160313AA002D0800
:10199A0083120313E400831603132C088312031320
:1019AA00E300831603132B0883120313E200831642
:1019BA0003132A0883120313E10001308316031369
:1019CA00AE002E0883120313E5000930E60000304A
:1019DA00E7000A168A1165240A128A15831203136C
:1019EA00640883160313A70083120313630883167C
:1019FA000313A60083120313620883160313A500B8
:101A0A0083120313610883160313A4003408A90080
:101A1A003308A8000A168A1141250A128A15831664
:101A2A0003132708AD002608AC002508AB002408DC
:101A3A00AA0035080319222D232D772D2D0883128C
:101A4A000313A300831603132C0883120313A200A3
:101A5A00831603132B0883120313A100831603139F
:101A6A002A0883120313A0007F30A7007F30A60044
:101A7A00FF30A500FF30A4000A168A1552250A1263
:101A8A008A15031C492D4A2D552D00308316031340
:101A9A00AD000030AC000030AB000030AA00772D5A
:101AAA00831603132D08F3002C08F2002B08F1000B
:101ABA002A08F0003F30F7008030F6000030F500C9
:101ACA000030F4000A128A1538210A128A1573089E
:101ADA0083160313AD007208AC007108AB007008DE
:101AEA00AA00772D08008312031350088039D50005
:101AFA005508DD005008D5005507D6005608DF0006
:101B0A00CF1F882D892D8A2D5F145F0803198E2D0A
:101B1A008F2D9F2D5F0A031D932D942D9C2D003030
:101B2A00D0000030CF000030CE000030CD00CF17FB
:101B3A00D001A72D0030D0000030CF000030CE00F9
:101B4A000030CD0054088039D5005508DE005E0803
:101B5A005D060319B12DB22DB32D5D175408D500BA
:101B6A005507D6005608DE00D31FBC2DBD2DBE2D4D
:101B7A005E145E080319C22DC32DD32D5E0A031D00
:101B8A00C72DC82DD02D0030D4000030D30000302E
:101B9A00D2000030D100D317D401DB2D0030D4009D
:101BAA000030D3000030D2000030D1005F085E025E
:101BBA000318E02DE12D252E5D1FE42DE52DE92DDD
:101BCA008030D5005508DD065F08D5005508E000CD
:101BDA005E08D5005508DF006008D5005508DE000C
:101BEA004D08D5005508E0005108D5005508CD002C
:101BFA006008D5005508D1004E08D5005508E00008
:101C0A005208D5005508CE006008D5005508D20004
:101C1A004F08D5005508E0005308D5005508CF00F5
:101C2A006008D5005508D3005008D5005508E000D3
:101C3A005408D5005508D0006008D5005508D400CE
:101C4A00E0015E08D500D6015608D8005F085502A3
:101C5A00D700031CD8035808803AFF0080307F025F
:101C6A00031D392E1A305702031C3C2E3D2E7A2EA4
:101C7A008312031350084F044E044D04031D462ECD
:101C8A00482E0130492E0030D5005508E0000030BA
:101C9A00D0000030CF000030CE000030CD005E080A
:101CAA00D5005508DF00822E601C5C2E5D2E662E44
:101CBA006008D5000310550C0138D6005608E0001C
:101CCA00682E0310E00C4D1C6B2E6C2E6D2EE01747
:101CDA000130D500500DD00CCF0CCE0CCD0CD50B4D
:101CEA006F2E0130D5005508DF07831203135E08F3
:101CFA005F02031C812E822E592E5D1B852E862E95
:101D0A00D12E5F08031D8A2E8B2E942E0030D00010
:101D1A000030CF000030CE000030CD00FF2F510838
:101D2A00CD07520803110318013E03199D2ECE0751
:101D3A00530803110318013E0319A42ECF075408B0
:101D4A0003110318013E0319AB2ED007501CAE2E07
:101D5A00AF2E852F601CB22EB32EBC2E6008D50084
:101D6A000310550C0138D6005608E000BE2E0310A9
:101D7A00E00C4D1CC12EC22EC32EE0170130D50037
:101D8A00500DD00CCF0CCE0CCD0CD50BC52E01307E
:101D9A00D5005508DF07852F5008803AFF00540800
:101DAA00803A7F02031DE32E53084F02031DE32EE0
:101DBA0052084E02031DE32E51084D020318E62E67
:101DCA00E72E3F2FFF30D500FF30D600FF30D70077
:101DDA00FF30D8005108D9005208DA005308DB0056
:101DEA005408DC004D08D9024E08031C4E0FFE2E83
:101DFA00FF2EDA024F08031C4F0F042F052FDB02B8
:101E0A005008031C500F0A2F0B2FDC025908D50764
:101E1A005A0803185A0F122F132FD6075B080318F4
:101E2A005B0F182F192FD7075C0803185C0AD8070D
:101E3A005808D0005708CF005608CE005508CD00E4
:101E4A008030D5005508DD06E009E00A6008031D68
:101E5A002F2F302F4D2F0130CD07003003180130BE
:101E6A00CE07003003180130CF07003003180130C5
:101E7A00D0074D2F5108CD025208031C520FCE0233
:101E8A005308031C530FCF025408031C540FD002EB
:101E9A0050084F044E044D04031D542F552F812F13
:101EAA006008031D592F5A2F812F0030D0000030AF
:101EBA00CF000030CE000030CD00FF2F0130D5001A
:101ECA000310CD0DCE0DCF0DD00DD50B652FE01F14
:101EDA006F2F702F712F4D14601C742F752F782F50
:101EEA000314E00D7A2F0310E00D5F0803197E2F0B
:101EFA007F2F812F0130DF02CF1F842F852F632F81
:101F0A00DE01E01F892F8A2F982F60087F39031975
:101F1A008F2F902F932FDE01DE0A982F4D1C962FBC
:101F2A00972F982F902F5E0803199C2F9D2FD12F42
:101F3A000130CD07003003180130CE0700300318F6
:101F4A000130CF07003003180130D007501CAE2FE4
:101F5A00AF2FD12F4D08D5004E08D6004F08D70015
:101F6A005008D8000130D900580DD80CD70CD60C1F
:101F7A00D50CD90BB92F5808D0005708CF005608EE
:101F8A00CE005508CD005F0A0319CC2FCD2FD12FD3
:101F9A000130D5005508DF075F0A0319D52FD62F60
:101FAA00DB2F5F08031DDA2FDB2FE92F0030D0006B
:101FBA000030CF000030CE000030CD005F08031D96
:101FCA00E72FE82FE92FDD015F1CEC2FED2FEF2F14
:101FDA00CF17F32F7F30D5005508CF055F08D500FE
:101FEA000310550CD6005608D000DD1FFD2FFE2F1A
:061FFA00FF2FD0170800C4
:102002000A168A153A230A168A11831603139114A3
:102012000800F601F11F0E280F281628F009F10911
:10202200F00A0319F10AF601F60AF31F19281A2811
:102032002328F209F309F20A0319F30A0130F40022
:102042007408F606F701F8017008710403192A28CA
:102052002B286228F501F50A392801300310F00D0A
:10206200F10DFF3E031D2F280130F4007408F5071F
:10207200F11F3C283D282E2801300310F70DF80DE2
:10208200FF3E031D3E2871087302031D4A28700893
:102092007202031C4D284E2855287008F20271085E
:1020A200031CF303F302771401300310F10CF00C5C
:1020B200FF3E031D56280130F502031D61286228E8
:1020C2003D2876080319662867286C28F709F8095D
:1020D200F70A0319F80A7808F1007708F0000800F7
:1020E2000A168A151D230A168A11D0308312031389
:1020F200A2000030A3000A168A1547230A168A1185
:10210200003083120313A200A3000A168A15472384
:102112000A168A110A168A1101200A168A11D1306A
:1021220083120313A2000030A3000A168A15472364
:102132000A168A110030F000F1000A128A150520F1
:102142000A168A117108F7007008F6000A168A1535
:1021520079240A168A11770883160317A5007608D0
:10216200A4000030F000F1000A128A1505200A16B8
:102172008A117108F7007008F6000A168A15792488
:102182000A168A11770883160317A3007608A2009D
:102192000030F000F1000A128A1505200A168A1191
:1021A2007108F7007008F6000A168A1579240A16D3
:1021B2008A11770883160317A1007608A000003061
:1021C200F000F1000A128A1505200A168A11003061
:1021D200F000F1000A128A1505200A168A11003051
:1021E200F000F1000A128A1505200A168A11013040
:1021F200F0000030F1000A128A1505200A168A1131
:102202000A168A1526230A168A1108008312031356
:10221200A101F31F0D290E291B29F009F109F20969
:10222200F309F00A0319F10A0319F20A0319F30A6E
:10223200A101A10AF71F1E291F292E29F409F50958
:10224200F609F709F40A0319F50A0319F60A03193C
:10225200F70A0130F8007808A1060030A500003026
:10226200A4000030A3000030A200730872047104BD
:10227200700403193D293E298B29A001A00A4E2989
:102282000130F8000310F00DF10DF20DF30DF80B13
:1022920043290130F8007808A007F31F5129522979
:1022A20041290130F8000310A20DA30DA40DA50DC4
:1022B200F80B542973087702031D69297208760204
:1022C200031D692971087502031D692970087402CA
:1022D200031C6C296D297C297008F4027108031C07
:1022E200710FF5027208031C720FF6027308031CC9
:1022F200730FF702221401300310F30CF20CF10CED
:10230200F00CFF3E031D7D290130A002031D8A2926
:102312008B295229210803198F2990299B29A20967
:10232200A309A409A509A20A0319A30A0319A40A65
:102332000319A50A2508F3002408F2002308F10076
:102342002208F000080000307005F8000030710526
:10235200F90080307205FA007F307305FB007B08BC
:102362007A0479047804031DB729B829C0290030FA
:10237200F3000030F2000030F1000030F0000030D5
:102382007405F80000307505F90080307605FA0012
:102392007F307705FB007B087A0479047804031DFB
:1023A200D329D429DC290030F7000030F6000030B0
:1023B200F5000030F400F31FDF29E029042A003081
:1023C200F8000030F9000030FA008030FB0070089D
:1023D200F8027108031C710FEF29F029F902720843
:1023E200031C720FF529F629FA027308031C730FF6
:1023F200FB29FC29FB027B08F3007A08F20079082A
:10240200F1007808F000F71F072A082A2C2A00306A
:10241200F8000030F9000030FA008030FB00740848
:10242200F8027508031C750F172A182AF902760894
:10243200031C760F1D2A1E2AFA027708031C770F47
:10244200232A242AFB027B08F7007A08F60079087F
:10245200F5007808F4008030F3068030F70677083C
:102462007302031D3E2A76087202031D3E2A750876
:102472007102031D3E2A740870020318412A422A7F
:10248200442A0310452A031408000A168A151D233C
:102492000A168A11D03083120313A2000030A3005F
:1024A2000A168A1547230A168A110030831203136B
:1024B200A200A3000A168A1547230A168A11831658
:1024C20003172508FA002408F9000A168A15A2241F
:1024D2000A168A117A0883120313A3007908A2004C
:1024E2000A168A1547230A168A1183160317230828
:1024F200FA002208F9000A168A15A2240A168A117D
:102502007A0883120313A3007908A2000A168A1517
:1025120047230A168A11831603172108FA00200896
:10252200F9000A168A15A2240A168A117A08831259
:102532000313A3007908A2000A168A1547230A1674
:102542008A11013083120313A2000030A3000A167D
:102552008A1547230A168A110030F900FA000A1672
:102562008A15A2240A168A117A0883120313A30079
:102572007908A2000A168A1547230A168A11003022
:10258200F900FA000A168A15A2240A168A117A0894
:1025920083120313A3007908A2000A168A1547239F
:1025A2000A168A110030F900FA000A168A15A224C6
:1025B2000A168A117A0883120313A3007908A2006B
:1025C2000A168A1547230A168A110A168A1526231D
:1025D2000A168A110800F80078080319F12AF22A6B
:1025E200062BF31FF52AF62A062B7009FA00710949
:1025F200FB007209FC007309FD00FA0A0319FB0AC9
:102602000319FC0A0319FD0A0E2B7308FD00720858
:10261200FC007108FB007008FA0073087204710470
:102622007004031D152B162B1F2B0030F3000030F6
:10263200F2000030F1000030F000A52B9630F400DB
:102642007408F900312B0130F4007408F9070130E5
:102652000310FD0CFC0CFB0CFA0CFF3E031D292B96
:10266200FE307D05031D362B372B242B532B0130D7
:10267200F4007408F9070130FA070030031801303A
:10268200FB07003003180130FC070030031801304B
:10269200FD0701300310FD0CFC0CFB0CFA0CFF3E95
:1026A200031D4B2BFF307D05031D582B592B382B57
:1026B200652B0130F9020130F4000310FA0DFB0D15
:1026C200FC0DFD0DF40B5E2BFC1B682B692B6F2B95
:1026D2000230790203186E2B6F2B5A2B7918722B4A
:1026E200732B7B2BFF30FA05FF30FB057F30FC0597
:1026F200FF30FD050310F90C7908F400F501F6012D
:10270200F70118300310F40DF50DF60DF70DFF3E2D
:10271200031D832B7408FA047508FB047608FC0475
:102722007708FD0478080319972B982B9D2BF31F2C
:102732009B2B9C2B9D2BFD177D08F3007C08F20040
:102742007B08F1007A08F000080083120313640882
:10275200AF006308AE006208AD006108AC006A30E9
:10276200E5006508B0000A168A154E260A168A1177
:1027720083120313EB1FBE2BBF2BEE2B6408F30057
:102782006308F2006208F1006108F0000030F7000F
:102792000030F6000030F5000030F4000A168A110D
:1027A200A4210A168A110318D72BD82BE32BBF308A
:1027B20083120313E4008030E3000030E2000030B3
:1027C200E100642C003083120313E4000030E300C4
:1027D2000030E2000030E100642C00306B021D305A
:1027E20003196A02031CF62BF72BF82B642C6408DE
:1027F200A3006308A2006208A1006108A0000A16F3
:102802008A1584270A168A11831203132308F300F8
:102812002208F2002108F1002008F00001300A1617
:102822008A11EC220A168A11730883120313E90033
:102832007208E8007108E7007008E6006408F30017
:102842006308F2006208F1006108F0006908F7000D
:102852006808F6006708F5006608F4000A168A118F
:10286200A4210A168A110318372C382C5A2CBF308F
:1028720083120313D0008030CF000030CE0000302E
:10288200CD006908D4006808D3006708D200660842
:10289200D1000A128A1578250A168A1183120313A7
:1028A2005008E4004F08E3004E08E2004D08E10042
:1028B200642C831203136908E4006808E3006708C4
:1028C200E2006608E1000800831203136608E800CC
:1028D20001300310E80DFF3E031D6A2C0310680D42
:1028E200650784000A168A1500200A168A11E90073
:1028F2000A168A1500200A168A11EA000A168A1593
:1029020000200A168A11EB000A168A1500200A1600
:102912008A11EC006C0883160313A30083120313BD
:102922006B0883160313A200831203136A0883162B
:102932000313A10083120313690883160313A00073
:10294200202DFF30E6070318E70AFF30E707660885
:10295200E80001300310E80DFF3E031DAB2C03100D
:10296200680D650784000A168A1500200A168A1166
:10297200E9000A168A1500200A168A11EA000A16C8
:102982008A1500200A168A11EB000A168A15002001
:102992000A168A11EC006C08D0006B08CF006A0896
:1029A200CE006908CD008316031323088312031394
:1029B200B60083160313220883120313B50083168D
:1029C2000313210883120313B40083160313200890
:1029D20083120313B3006408BA006308B9006208E3
:1029E200B8006108B7000A128A1192240A168A11E5
:1029F200831203133608D4003508D3003408D200FA
:102A02003308D1000A128A1578250A168A11831210
:102A12000313500883160313A300831203134F08F2
:102A220083160313A200831203134E0883160313A3
:102A3200A100831203134D0883160313A00083120F
:102A4200031366086704031D272D282DA22C831665
:102A52000313230883120313E400831603132208CB
:102A620083120313E3008316031321088312031353
:102A7200E20083160313200883120313E100080007
:102A820083160313270883120313A3008316031369
:102A9200260883120313A200831603132508831248
:102AA2000313A10083160313240883120313A00047
:102AB2000030A7000030A6000030A5000030A400BE
:102AC2000A168A1552250A168A11031C692D6A2DC7
:102AD200752D003083160313A7000030A6000030C6
:102AE200A5000030A400242E8316031327087F3983
:102AF20083120313ED00EE010310ED0DEE0D6D08D0
:102B020083160313A8070318A90A831203136E0876
:102B120083160313A907260D260D01398312031309
:102B2200ED00EE016D0883160313A8070318A90A26
:102B3200831203136E0883160313A907A91FA22D7C
:102B4200A32DB42D2230831603179800003099006C
:102B5200003083160313A7000030A6000030A50042
:102B62000030A400242E2908803AFF0081307F0221
:102B7200031DBD2D00302802031CC02DC12DF82DD0
:102B8200223083160317980000309900831603132E
:102B92002708F3002608F2002508F1002408F000B7
:102BA2000030F7000030F6000030F5000030F4008D
:102BB2000A168A11A4210A168A110318E12DE22DA0
:102BC200ED2DFF3083160313A7007F30A600FF30E0
:102BD200A500FF30A400242E7F3083160313A70024
:102BE2007F30A600FF30A500FF30A400242E8316FC
:102BF2000313290883120313EE0083160313280814
:102C020083120313ED006E0DEE0CED0C831603130D
:102C12002708831203136D0680396D06831603138A
:102C2200A7002808013983120313ED00ED0CED0C07
:102C3200831603132608831203136D067F396D066C
:102C420083160313A600080083160313C70139086D
:102C520083120313A300831603133808831203138A
:102C6200A20083160313370883120313A1008316ED
:102C72000313360883120313A0000030A7000030AC
:102C8200A6000030A5000030A4000A168A155225BD
:102C92000A168A11031C4E2E4F2E7B2E0030F30093
:102CA2000030F2000030F1000030F0008316031310
:102CB2003D08F7003C08F6003B08F5003A08F4002E
:102CC2000A168A11A4210A168A11031C692E6A2E79
:102CD200702E2130831603179800003099000030BF
:102CE20083160313B9000030B8000030B70000307B
:102CF200B600FF2F831603133D0883120313A300AC
:102D0200831603133C0883120313A20083160313D2
:102D12003B0883120313A100831603133A0883129C
:102D22000313A0000030A7000030A6000030A50069
:102D32000030A4000A168A1552250A168A11031CAD
:102D4200A32EA42EAF2E3F3083160313B90080307A
:102D5200B8000030B7000030B600FF2F831603130F
:102D62003908F3003808F2003708F1003608F0009D
:102D72000030F7000030F6000030F5000030F400BB
:102D82000A168A11A4210A168A110318C92ECA2EFC
:102D9200672F831603133D0883120313A3008316C0
:102DA20003133C0883120313A200831603133B0888
:102DB20083120313A100831603133A088312031329
:102DC200A0000A168A1584270A168A118312031391
:102DD200230883160313CB008312031322088316DE
:102DE2000313CA0083120313210883160313C900B5
:102DF20083120313200883160313C8004B08F30041
:102E02004A08F2004908F1004808F00000300A16AA
:102E12008A11EC220A168A11730883120313A30083
:102E22007208A2007108A1007008A00083160313A3
:102E32003D0883120313A700831603133C08831271
:102E42000313A600831603133B0883120313A50082
:102E5200831603133A0883120313A4000A168A1571
:102E620052250A168A110318372F382F492F21307D
:102E7200831603179800003099000030831603135D
:102E8200B9000030B8000030B7000030B600FF2FA4
:102E92008316031348080139BE003E08C7003908EB
:102EA200F3003808F2003708F1003608F0000A167D
:102EB2008A152F230A168A11730883160313B90081
:102EC2007208B8007108B7007008B60083160313C1
:102ED2003908A7003808A6003708A5003608A4005C
:102EE2000A128A1135200A168A118316031327083B
:102EF200C2002608C1002508C0002408BF003D0802
:102F020083120313B600831603133C0883120313C0
:102F1200B500831603133B0883120313B400831610
:102F220003133A0883120313B300831603134208F0
:102F320083120313BA008316031341088312031387
:102F4200B90083160313400883120313B8008316D3
:102F520003133F0883120313B7000A128A11922443
:102F62000A168A1183120313360883160313C60046
:102F720083120313350883160313C5008312031348
:102F8200340883160313C400831203133308831611
:102F92000313C3004608AD004508AC004408AB006B
:102FA2004308AA000A128A151B230A168A118316DD
:102FB20003132D08B9002C08B8002B08B7002A0803
:102FC200B60047080319E62FE72FFF2F3908F30051
:102FD2003808F2003708F1003608F0000A168A15A0
:102FE2002F230A168A11730883160313B900720875
:102FF200B8007108B7007008B600FF2F080018303B
:103002008A000408840A82070034003400348034C1
:103012003F341834723431343F34F034FD34753473
:103022003E344734583463343D34583495341D3477
:103032003C348234C434AE343A34A8347834213443
:103042003934EF34933480343734A0349234A73493
:1030520035344634563415343434003400340034B4
:103062000034C434FF347F343F348034EF34FF34CF
:10307200BE349034E134A9343E34EC3482347634B4
:10308200BE348234AD342B343E340E343C34C3343B
:10309200BD348734D13413343D3441347834D3349D
:1030A200BB34203453343A340034253420340034D1
:1030B20048343A34003454343A3400342534003439
:0430C200433400345F
:10362A0064008001840A0406031900340406162B78
:10363A000A168A153A230A168A15831603131114D1
:10364A0008000A168A153A230A168A1583160313DE
:10365A001115080073087204710470040319362BDB
:10366A00372B392B8030F306080083160313110811
:10367A001F39031D412B422B3A2B1419452B462B7C
:10368A003A2B08000A168A153A230A168A15831253
:10369A000313220893000A168A153A230A168A1572
:1036AA0008008312031388120330F1009730F000E8
:1036BA00F00B5D2BF10B5D2B622B83120313881623
:1036CA000330F1009730F000F00B692BF10B692BF6
:1036DA006E2B0800F40083120313081274080A16EA
:1036EA008A15A3230A168A150A168A1556230A1654
:1036FA008A151530F300C630F200F20B822BF30B59
:10370A00822B000008008316031306128312031388
:10371A0006125E30F1008030F000F00B922BF10BB4
:10372A00922B00008312031306162730F000F00BC9
:10373A009C2B9F2B8316031306160800F000701C9F
:10374A00A72BA82BAC2B831203130814AF2B8312BD
:10375A0003130810F01CB22BB32BB52B8814B62B0D
:10376A008810701DB92BBA2BBC2B0815BD2B08115C
:10377A00F01DC02BC12BC32B8815C42B8811080040
:10378A00F800F701D92B7708780784000A168A15FA
:10379A0000200A168A150A128A1108200A168A15A2
:1037AA000130F6007608F7077708780784000A16CA
:1037BA008A1500200A168A15003A031DE52BE62B06
:1037CA00C82B080083160317AD013530F000F00B43
:1037DA00EC2B83120313061AF32BF42B082C6A30F2
:1037EA00F000F00BF62B000083120313061EFE2BCB
:1037FA00FF2B032C83160317AD01AD0A4230F000EC
:10380A00F00B052C00000800803083120313E40635
:10381A006808D0006708CF006608CE006508CD00AA
:10382A006408D4006308D3006208D2006108D1009A
:10383A000A128A1578250A168A1583120313500864
:10384A00E4004F08E3004E08E2004D08E1000800DA
:10385A00F401F501701C322C332C392C7208F40750
:10386A000318F50A7308F50701300310F20DF30D7A
:10387A00FF3E031D3A2C01300310F10CF00CFF3E01
:10388A00031D412C70087104031D4C2C4D2C2F2C48
:10389A007508F1007408F0000800F800F401F50159
:1038AA007008F200F3017208F6007308F700781C3A
:1038BA005F2C602C662C7608F4070318F50A770843
:1038CA00F50701300310F60DF70DFF3E031D672CB7
:1038DA000310F80C7808031D732C742C5C2C7508E3
:1038EA00F1007408F00008000F307605F800003087
:1038FA007705F900760E0F39F000770EF039F004EB
:10390A00770E0F39F100F030F11D0030F1040A3062
:10391A00F2000030F3000A168A152D240A168A15B9
:10392A0078087007FA0079080318790A7107FB000A
:10393A007B08F7007A08F60008000A30F000003029
:10394A00F1007A08F3007908F2000A168A110A20AF
:10395A000A168A157008FB007108FC00FB0EFC0EA3
:10396A00F030FC057B080F39FC04F030FB050A3007
:10397A00F0000030F1007A08F3007908F2000A1624
:10398A008A15F5250A168A1570087B078312031310
:10399A00A00071080318710A7C07A1002108FA0027
:1039AA002008F900080028308312031394008316B4
:1039BA00031391019401831203132008A400210820
:1039CA00A5002208A6002308A70002300310A40DB0
:1039DA00A50DA60DA70DFF3E031DEB2C2708F3002E
:1039EA002608F2002508F1002408F0000030F7004C
:1039FA00F430F6002430F5000030F4000A168A1577
:103A0A00AA260A168A157008FF3E83160313930026
:103A1A00871507160800F30183120313061E162DD5
:103A2A00172D112D2730F000F00B192D1C2D8312A4
:103A3A000313061A212D222D332D0130F0007308AD
:103A4A00073C013E2A2D0310F00DFF3E031D282DD1
:103A5A007008FF3AF1007108F205462D0130F000B6
:103A6A007308073C013E3B2D0310F00DFF3E031D7A
:103A7A00392D7008F1007108F204061A452D462DF9
:103A8A00422D0130F0007008F30708307302031C5E
:103A9A004F2D502D112D7208080000308312031388
:103AAA002005A80000302105A90080302205AA00BF
:103ABA007F302305AB002B082A0429042804031DA0
:103ACA00672D682D702D0030A3000030A200003051
:103ADA00A1000030A00000302405A8000030250510
:103AEA00A90080302605AA007F302705AB002B08E5
:103AFA002A0429042804031D832D842D8C2D0030CB
:103B0A00A7000030A6000030A5000030A400270856
:103B1A002306031D9A2D26082206031D9A2D250821
:103B2A002106031D9A2D2408200603199D2D9E2D7A
:103B3A00A02D0310A12D03140800F8007803031D1B
:103B4A00A72DA82DCB2D75087F3EF6007608FB0021
:103B5A007B08F60004300310F60CFF3E031DB02D5F
:103B6A0076080F39F7007708F9007B080F39F60055
:103B7A007608FA0079080A168A156F230A168A1532
:103B8A007A080A168A156F230A168A1502307806E9
:103B9A00031DD02DD12DF42D7508BF3EF6007608F1
:103BAA00FB007B08F60004300310F60CFF3E031DF1
:103BBA00D92D76080F39F7007708F9007B080F39F5
:103BCA00F6007608FA0079080A168A156F230A168B
:103BDA008A157A080A168A156F230A168A150800A2
:103BEA00F601F31FF92DFA2D012EF209F309F20A53
:103BFA000319F30AF601F60AF11F042E052E0A2EFE
:103C0A00F009F109F00A0319F10A7008710403199D
:103C1A000F2E102E3F2EF501F50A1E2E013003102D
:103C2A00F00DF10DFF3E031D142E0130F40074084F
:103C3A00F507F11F212E222E132E71087302031D80
:103C4A00282E70087202031C2B2E2C2E322E70087E
:103C5A00F2027108031CF303F30201300310F10CA2
:103C6A00F00CFF3E031D332E0130F502031D3E2EDC
:103C7A003F2E222E76080319432E442E492EF2098E
:103C8A00F309F20A0319F30A7308F1007208F00043
:103C9A000800831203132F08A3002E08A2002D0880
:103CAA00A1002C08A0000030A7000030A6000030B8
:103CBA00A5000030A4000A168A1552250A168A158C
:103CCA00031C682E692E7A2E83120313300884008F
:103CDA0083138001840A80010030AF000030AE00F7
:103CEA000030AD000030AC00A92E831203132F0858
:103CFA007F39B100B2010310B10DB20D3008840052
:103D0A00310883138000840A320880002E0D2E0D9C
:103D1A000139B100B2013008840031088004840AF4
:103D2A00320880043008840082308007840F00083B
:103D3A000318000AFF00FF307F07800084032F0862
:103D4A0080393F38AF00AE1308000030FC00003065
:103D5A00FB000030FA000030F900730872047104A5
:103D6A0070040319B92EBA2E072FFD01FD0ACA2EB7
:103D7A000130F8000310F00DF10DF20DF30DF80B00
:103D8A00BF2E0130F8007808FD07F31FCD2ECE2E86
:103D9A00BD2E0130F8000310F90DFA0DFB0DFC0DD4
:103DAA00F80BD02E73087702031DE52E72087602EF
:103DBA00031DE52E71087502031DE52E70087402B5
:103DCA00031CE82EE92EF82E7008F4027108031C71
:103DDA00710FF5027208031C720FF6027308031CB6
:103DEA00730FF702791401300310F30CF20CF10C83
:103DFA00F00CFF3E031DF92E0130FD02031D062FB4
:103E0A00072FCE2E7C08F3007B08F2007A08F10017
:103E1A007908F00008008316031388010812881233
:103E2A0000300A168A15A3230A168A151530F600D9
:103E3A00C630F500F50B1F2FF60B1F2F00000330BD
:103E4A00F6009730F500F50B282FF60B282F2D2FAB
:103E5A0003300A168A156F230A168A151A30F600D5
:103E6A00F830F500F50B372FF60B372F000003302B
:103E7A000A168A156F230A168A15C730F500F50B3C
:103E8A00442F472F03300A168A156F230A168A15FC
:103E9A0002300A168A156F230A168A1502300A1684
:103EAA008A156F230A168A1508300A168A156F238F
:103EBA000A168A1500300A168A156F230A168A15F9
:103ECA0008300A168A156F230A168A1500300A1650
:103EDA008A156F230A168A150C300A168A156F235B
:103EEA000A168A1500300A168A156F230A168A15C9
:103EFA0006300A168A156F230A168A150800031057
:103F0A0083120313220D230DA4002408AA002A08F1
:103F1A00031D902F912F9A2F0030A3000030A2008A
:103F2A000030A1000030A000FF2F2008A4002108C3
:103F3A00A5002208A6002308A7001F300310A70C1B
:103F4A00A60CA50CA40CFF3E031DA32F2408A80051
:103F5A002808A900A217FF30A005FF30A105FF30ED
:103F6A00A2050030A3059630AA02AA1FBD2FBE2FB4
:103F7A00D82F2A08803A973E0318C42FC52FC62F78
:103F8A00912F01300310A30CA20CA10CA00CFF3E30
:103F9A00031DC72F0130A4002408AA07031DD62F2A
:103FAA00D72FC62FEF2F20302A02031CDD2FDE2F3A
:103FBA00EA2F912F0130A4000310A00DA10DA20D2C
:103FCA00A30DA40BE12F0130AA022A08031DEE2F2C
:103FDA00EF2FDF2F29080319F32FF42FFF2FA00942
:103FEA00A109A209A309A00A0319A10A0319A20A8D
:063FFA000319A30A0800F0
:02400E003A3F37
:00000001FF
