:020000040000FA
:100000000A128A11EE2F00308A000408840A82073F
:0E0010000034573465346C3463346F3400347C
:100C560000300A128A1138260A128A1101300A1245
:100C66008A1138260A128A110800F3008312031328
:100C7600081273080A128A1152260A128A1183125E
:100C8600031388161530F200C630F100F10B492E19
:100C9600F20B492E00008312031388120800F0009D
:100CA600701C562E572E5B2E8312031308145E2ECD
:100CB600831203130810F01C612E622E642E881412
:100CC600652E8810701D682E692E6B2E08156C2EE9
:100CD6000811F01D6F2E702E722E8815732E881136
:100CE6000800FB00F901FA018B2E79087B078400C6
:100CF6000A128A1103200A128A110A128A118F27F0
:100D06000A128A110130F9070318FA0A0030FA07A5
:100D160079087B0784000A128A1103200A128A11B5
:100D2600003A031D972E982E782E0800831203137F
:100D360089018801870186018501831603138601CF
:100D460088010A128A113B270A128A110A128A118D
:100D56002B260A128A11F401F40A01300A128A11AA
:100D6600E9260A128A1101300A128A1174260A1219
:100D76008A110A128A112B260A128A111F3083122F
:100D86000313AC007130AB001D30AA00AA0BC92EAC
:100D9600AB0BC92EAC0BC92ED02E8312031306142F
:100DA600053083120313AC000F30AB00F030AA00FD
:100DB600AA0BDB2EAB0BDB2EAC0BDB2E000083125B
:100DC60003130610D02E0A128A110028F7007703A3
:100DD600031DEE2EEF2E122F74087F3EF5007508C8
:100DE600FA007A08F50004300310F50CFF3E031DE7
:100DF600F72E7508F6007608F8007A080F39F50020
:100E06007508F90078080A128A1138260A128A111A
:100E160079080A128A1138260A128A113A2F0230E4
:100E26007706031D172F182F3A2F7408BF3EF500BB
:100E36007508FA007A08F50004300310F50CFF3E39
:100E4600031D202F7508F6007608F8007A080F397A
:100E5600F5007508F90078080A128A1138260A1270
:100E66008A1179080A128A1138260A128A1108008C
:100E760000300A128A1152260A128A1103300A1207
:100E86008A1138260A128A111A30F500F830F40051
:100E9600F40B4B2FF50B4B2F000003300A128A116F
:100EA60038260A128A113A30F5002330F400F40B82
:100EB6005A2FF50B5A2F03300A128A1138260A12B6
:100EC6008A1102300A128A1138260A128A11023051
:100ED6000A128A1138260A128A1108300A128A1151
:100EE60038260A128A1100300A128A1138260A1286
:100EF6008A110C300A128A1138260A128A11003019
:100F06000A128A1138260A128A1106300A128A1122
:100F160038260A128A110800F80078080F39F100FD
:100F26007108F2007808F039F1007108F3008312B5
:100F3600031308167308F10004300310F10CFF3E8A
:100F4600031DA02F71080A128A1152260A128A114D
:100F56008312031388163330F4008230F500000044
:100F6600FF30F4070318F50AFF30F5077508803AD5
:100F7600FF0080307F02031DC22F01307402031C64
:100F8600C52FC62FB22F83120313881272080A12B6
:100F96008A1152260A128A118312031388163330D5
:100FA600F6008230F7000000FF30F6070318F70A54
:100FB600FF30F7077708803AFF0080307F02031D75
:100FC600E62F01307602031CE92FEA2FD62F831273
:100FD600031388120800FC01FD0183120313A0010C
:100FE600A101A201A301A401A501A601A701A801CF
:0A0FF600A90183010A128A11992E45
:02400E003A3F37
:00000001FF
